{
  "_format": "hh-sol-artifact-1",
  "contractName": "YesCoinToken",
  "sourceName": "contracts/YesCoinToken.sol",
  "abi": [
    {
      "inputs": [],
      "stateMutability": "nonpayable",
      "type": "constructor"
    },
    {
      "inputs": [
        {
          "internalType": "address",
          "name": "spender",
          "type": "address"
        },
        {
          "internalType": "uint256",
          "name": "allowance",
          "type": "uint256"
        },
        {
          "internalType": "uint256",
          "name": "needed",
          "type": "uint256"
        }
      ],
      "name": "ERC20InsufficientAllowance",
      "type": "error"
    },
    {
      "inputs": [
        {
          "internalType": "address",
          "name": "sender",
          "type": "address"
        },
        {
          "internalType": "uint256",
          "name": "balance",
          "type": "uint256"
        },
        {
          "internalType": "uint256",
          "name": "needed",
          "type": "uint256"
        }
      ],
      "name": "ERC20InsufficientBalance",
      "type": "error"
    },
    {
      "inputs": [
        {
          "internalType": "address",
          "name": "approver",
          "type": "address"
        }
      ],
      "name": "ERC20InvalidApprover",
      "type": "error"
    },
    {
      "inputs": [
        {
          "internalType": "address",
          "name": "receiver",
          "type": "address"
        }
      ],
      "name": "ERC20InvalidReceiver",
      "type": "error"
    },
    {
      "inputs": [
        {
          "internalType": "address",
          "name": "sender",
          "type": "address"
        }
      ],
      "name": "ERC20InvalidSender",
      "type": "error"
    },
    {
      "inputs": [
        {
          "internalType": "address",
          "name": "spender",
          "type": "address"
        }
      ],
      "name": "ERC20InvalidSpender",
      "type": "error"
    },
    {
      "inputs": [],
      "name": "EnforcedPause",
      "type": "error"
    },
    {
      "inputs": [],
      "name": "ExpectedPause",
      "type": "error"
    },
    {
      "inputs": [
        {
          "internalType": "address",
          "name": "owner",
          "type": "address"
        }
      ],
      "name": "OwnableInvalidOwner",
      "type": "error"
    },
    {
      "inputs": [
        {
          "internalType": "address",
          "name": "account",
          "type": "address"
        }
      ],
      "name": "OwnableUnauthorizedAccount",
      "type": "error"
    },
    {
      "anonymous": false,
      "inputs": [
        {
          "indexed": true,
          "internalType": "address",
          "name": "owner",
          "type": "address"
        },
        {
          "indexed": true,
          "internalType": "address",
          "name": "spender",
          "type": "address"
        },
        {
          "indexed": false,
          "internalType": "uint256",
          "name": "value",
          "type": "uint256"
        }
      ],
      "name": "Approval",
      "type": "event"
    },
    {
      "anonymous": false,
      "inputs": [
        {
          "indexed": true,
          "internalType": "address",
          "name": "previousOwner",
          "type": "address"
        },
        {
          "indexed": true,
          "internalType": "address",
          "name": "newOwner",
          "type": "address"
        }
      ],
      "name": "OwnershipTransferred",
      "type": "event"
    },
    {
      "anonymous": false,
      "inputs": [
        {
          "indexed": false,
          "internalType": "address",
          "name": "account",
          "type": "address"
        }
      ],
      "name": "Paused",
      "type": "event"
    },
    {
      "anonymous": false,
      "inputs": [
        {
          "indexed": true,
          "internalType": "address",
          "name": "from",
          "type": "address"
        },
        {
          "indexed": false,
          "internalType": "uint256",
          "name": "amount",
          "type": "uint256"
        }
      ],
      "name": "TokensBurned",
      "type": "event"
    },
    {
      "anonymous": false,
      "inputs": [
        {
          "indexed": true,
          "internalType": "address",
          "name": "to",
          "type": "address"
        },
        {
          "indexed": false,
          "internalType": "uint256",
          "name": "amount",
          "type": "uint256"
        }
      ],
      "name": "TokensMinted",
      "type": "event"
    },
    {
      "anonymous": false,
      "inputs": [
        {
          "indexed": true,
          "internalType": "address",
          "name": "from",
          "type": "address"
        },
        {
          "indexed": true,
          "internalType": "address",
          "name": "to",
          "type": "address"
        },
        {
          "indexed": false,
          "internalType": "uint256",
          "name": "value",
          "type": "uint256"
        }
      ],
      "name": "Transfer",
      "type": "event"
    },
    {
      "anonymous": false,
      "inputs": [
        {
          "indexed": false,
          "internalType": "address",
          "name": "account",
          "type": "address"
        }
      ],
      "name": "Unpaused",
      "type": "event"
    },
    {
      "inputs": [],
      "name": "TOTAL_SUPPLY",
      "outputs": [
        {
          "internalType": "uint256",
          "name": "",
          "type": "uint256"
        }
      ],
      "stateMutability": "view",
      "type": "function"
    },
    {
      "inputs": [
        {
          "internalType": "address",
          "name": "owner",
          "type": "address"
        },
        {
          "internalType": "address",
          "name": "spender",
          "type": "address"
        }
      ],
      "name": "allowance",
      "outputs": [
        {
          "internalType": "uint256",
          "name": "",
          "type": "uint256"
        }
      ],
      "stateMutability": "view",
      "type": "function"
    },
    {
      "inputs": [
        {
          "internalType": "address",
          "name": "spender",
          "type": "address"
        },
        {
          "internalType": "uint256",
          "name": "value",
          "type": "uint256"
        }
      ],
      "name": "approve",
      "outputs": [
        {
          "internalType": "bool",
          "name": "",
          "type": "bool"
        }
      ],
      "stateMutability": "nonpayable",
      "type": "function"
    },
    {
      "inputs": [
        {
          "internalType": "address",
          "name": "account",
          "type": "address"
        }
      ],
      "name": "balanceOf",
      "outputs": [
        {
          "internalType": "uint256",
          "name": "",
          "type": "uint256"
        }
      ],
      "stateMutability": "view",
      "type": "function"
    },
    {
      "inputs": [
        {
          "internalType": "uint256",
          "name": "amount",
          "type": "uint256"
        }
      ],
      "name": "burn",
      "outputs": [],
      "stateMutability": "nonpayable",
      "type": "function"
    },
    {
      "inputs": [
        {
          "internalType": "address",
          "name": "from",
          "type": "address"
        },
        {
          "internalType": "uint256",
          "name": "amount",
          "type": "uint256"
        }
      ],
      "name": "burnFrom",
      "outputs": [],
      "stateMutability": "nonpayable",
      "type": "function"
    },
    {
      "inputs": [],
      "name": "decimals",
      "outputs": [
        {
          "internalType": "uint8",
          "name": "",
          "type": "uint8"
        }
      ],
      "stateMutability": "view",
      "type": "function"
    },
    {
      "inputs": [],
      "name": "getTokenInfo",
      "outputs": [
        {
          "internalType": "string",
          "name": "tokenName",
          "type": "string"
        },
        {
          "internalType": "string",
          "name": "tokenSymbol",
          "type": "string"
        },
        {
          "internalType": "uint8",
          "name": "tokenDecimals",
          "type": "uint8"
        },
        {
          "internalType": "uint256",
          "name": "tokenTotalSupply",
          "type": "uint256"
        }
      ],
      "stateMutability": "view",
      "type": "function"
    },
    {
      "inputs": [
        {
          "internalType": "address",
          "name": "to",
          "type": "address"
        },
        {
          "internalType": "uint256",
          "name": "amount",
          "type": "uint256"
        }
      ],
      "name": "mint",
      "outputs": [],
      "stateMutability": "nonpayable",
      "type": "function"
    },
    {
      "inputs": [],
      "name": "name",
      "outputs": [
        {
          "internalType": "string",
          "name": "",
          "type": "string"
        }
      ],
      "stateMutability": "view",
      "type": "function"
    },
    {
      "inputs": [],
      "name": "owner",
      "outputs": [
        {
          "internalType": "address",
          "name": "",
          "type": "address"
        }
      ],
      "stateMutability": "view",
      "type": "function"
    },
    {
      "inputs": [],
      "name": "pause",
      "outputs": [],
      "stateMutability": "nonpayable",
      "type": "function"
    },
    {
      "inputs": [],
      "name": "paused",
      "outputs": [
        {
          "internalType": "bool",
          "name": "",
          "type": "bool"
        }
      ],
      "stateMutability": "view",
      "type": "function"
    },
    {
      "inputs": [],
      "name": "renounceOwnership",
      "outputs": [],
      "stateMutability": "nonpayable",
      "type": "function"
    },
    {
      "inputs": [],
      "name": "symbol",
      "outputs": [
        {
          "internalType": "string",
          "name": "",
          "type": "string"
        }
      ],
      "stateMutability": "view",
      "type": "function"
    },
    {
      "inputs": [],
      "name": "totalSupply",
      "outputs": [
        {
          "internalType": "uint256",
          "name": "",
          "type": "uint256"
        }
      ],
      "stateMutability": "view",
      "type": "function"
    },
    {
      "inputs": [
        {
          "internalType": "address",
          "name": "to",
          "type": "address"
        },
        {
          "internalType": "uint256",
          "name": "value",
          "type": "uint256"
        }
      ],
      "name": "transfer",
      "outputs": [
        {
          "internalType": "bool",
          "name": "",
          "type": "bool"
        }
      ],
      "stateMutability": "nonpayable",
      "type": "function"
    },
    {
      "inputs": [
        {
          "internalType": "address",
          "name": "from",
          "type": "address"
        },
        {
          "internalType": "address",
          "name": "to",
          "type": "address"
        },
        {
          "internalType": "uint256",
          "name": "value",
          "type": "uint256"
        }
      ],
      "name": "transferFrom",
      "outputs": [
        {
          "internalType": "bool",
          "name": "",
          "type": "bool"
        }
      ],
      "stateMutability": "nonpayable",
      "type": "function"
    },
    {
      "inputs": [
        {
          "internalType": "address",
          "name": "newOwner",
          "type": "address"
        }
      ],
      "name": "transferOwnership",
      "outputs": [],
      "stateMutability": "nonpayable",
      "type": "function"
    },
    {
      "inputs": [],
      "name": "unpause",
      "outputs": [],
      "stateMutability": "nonpayable",
      "type": "function"
    }
  ],
  "bytecode": "0x60806040523480156200001157600080fd5b5033604051806040016040528060078152602001662cb2b9a1b7b4b760c91b8152506040518060400160405280600381526020016259455360e81b8152508160039081620000609190620003c5565b5060046200006f8282620003c5565b5050506001600160a01b038116620000a257604051631e4fbdf760e01b8152600060048201526024015b60405180910390fd5b620000ad816200010d565b50620000c6336b033b2e3c9fd0803ce80000006200015f565b6040516b033b2e3c9fd0803ce8000000815233907f3f2c9d57c068687834f0de942a9babb9e5acab57d516d3480a3c16ee165a42739060200160405180910390a2620004b9565b600580546001600160a01b038381166001600160a01b0319831681179093556040519116919082907f8be0079c531659141344cd1fd0a4f28419497f9722a3daafe3b4186f6b6457e090600090a35050565b6001600160a01b0382166200018b5760405163ec442f0560e01b81526000600482015260240162000099565b62000199600083836200019d565b5050565b620001a7620001b9565b620001b4838383620001ee565b505050565b620001cd600554600160a01b900460ff1690565b15620001ec5760405163d93c066560e01b815260040160405180910390fd5b565b6001600160a01b0383166200021d57806002600082825462000211919062000491565b90915550620002919050565b6001600160a01b03831660009081526020819052604090205481811015620002725760405163391434e360e21b81526001600160a01b0385166004820152602481018290526044810183905260640162000099565b6001600160a01b03841660009081526020819052604090209082900390555b6001600160a01b038216620002af57600280548290039055620002ce565b6001600160a01b03821660009081526020819052604090208054820190555b816001600160a01b0316836001600160a01b03167fddf252ad1be2c89b69c2b068fc378daa952ba7f163c4a11628f55a4df523b3ef836040516200031491815260200190565b60405180910390a3505050565b634e487b7160e01b600052604160045260246000fd5b600181811c908216806200034c57607f821691505b6020821081036200036d57634e487b7160e01b600052602260045260246000fd5b50919050565b601f821115620001b457600081815260208120601f850160051c810160208610156200039c5750805b601f850160051c820191505b81811015620003bd57828155600101620003a8565b505050505050565b81516001600160401b03811115620003e157620003e162000321565b620003f981620003f2845462000337565b8462000373565b602080601f831160018114620004315760008415620004185750858301515b600019600386901b1c1916600185901b178555620003bd565b600085815260208120601f198616915b82811015620004625788860151825594840194600190910190840162000441565b5085821015620004815787850151600019600388901b60f8161c191681555b5050505050600190811b01905550565b80820180821115620004b357634e487b7160e01b600052601160045260246000fd5b92915050565b610ee080620004c96000396000f3fe608060405234801561001057600080fd5b506004361061012c5760003560e01c8063715018a6116100ad57806395d89b411161007157806395d89b4114610262578063a9059cbb1461026a578063abb1dc441461027d578063dd62ed3e14610295578063f2fde38b146102a857600080fd5b8063715018a61461021157806379cc6790146102195780638456cb591461022c5780638da5cb5b14610234578063902d55a51461024f57600080fd5b80633f4ba83a116100f45780633f4ba83a146101a657806340c10f19146101b057806342966c68146101c35780635c975abb146101d657806370a08231146101e857600080fd5b806306fdde0314610131578063095ea7b31461014f57806318160ddd1461017257806323b872dd14610184578063313ce56714610197575b600080fd5b6101396102bb565b6040516101469190610caa565b60405180910390f35b61016261015d366004610ce0565b61034d565b6040519015158152602001610146565b6002545b604051908152602001610146565b610162610192366004610d0a565b610367565b60405160128152602001610146565b6101ae61038b565b005b6101ae6101be366004610ce0565b61039d565b6101ae6101d1366004610d46565b6104b5565b600554600160a01b900460ff16610162565b6101766101f6366004610d5f565b6001600160a01b031660009081526020819052604090205490565b6101ae610584565b6101ae610227366004610ce0565b610596565b6101ae6106df565b6005546040516001600160a01b039091168152602001610146565b6101766b033b2e3c9fd0803ce800000081565b6101396106ef565b610162610278366004610ce0565b6106fe565b61028561070c565b6040516101469493929190610d7a565b6101766102a3366004610db6565b610735565b6101ae6102b6366004610d5f565b610760565b6060600380546102ca90610de9565b80601f01602080910402602001604051908101604052809291908181526020018280546102f690610de9565b80156103435780601f1061031857610100808354040283529160200191610343565b820191906000526020600020905b81548152906001019060200180831161032657829003601f168201915b5050505050905090565b60003361035b81858561079e565b60019150505b92915050565b6000336103758582856107b0565b610380858585610817565b506001949350505050565b610393610876565b61039b6108a3565b565b6103a5610876565b6001600160a01b0382166104005760405162461bcd60e51b815260206004820152601d60248201527f596573436f696e3a206d696e7420746f207a65726f206164647265737300000060448201526064015b60405180910390fd5b600081116104645760405162461bcd60e51b815260206004820152602b60248201527f596573436f696e3a206d696e7420616d6f756e74206d7573742062652067726560448201526a061746572207468616e20360ac1b60648201526084016103f7565b61046e82826108f8565b816001600160a01b03167f3f2c9d57c068687834f0de942a9babb9e5acab57d516d3480a3c16ee165a4273826040516104a991815260200190565b60405180910390a25050565b600081116104d55760405162461bcd60e51b81526004016103f790610e23565b336000908152602081905260409020548111156105425760405162461bcd60e51b815260206004820152602560248201527f596573436f696e3a20696e73756666696369656e742062616c616e636520746f60448201526410313ab93760d91b60648201526084016103f7565b61054c3382610932565b60405181815233907ffd38818f5291bf0bb3a2a48aadc06ba8757865d1dabd804585338aab3009dcb69060200160405180910390a250565b61058c610876565b61039b6000610968565b600081116105b65760405162461bcd60e51b81526004016103f790610e23565b6001600160a01b03821661060c5760405162461bcd60e51b815260206004820152601f60248201527f596573436f696e3a206275726e2066726f6d207a65726f20616464726573730060448201526064016103f7565b60006106188333610735565b9050818110156106795760405162461bcd60e51b815260206004820152602660248201527f596573436f696e3a206275726e20616d6f756e74206578636565647320616c6c6044820152656f77616e636560d01b60648201526084016103f7565b61068d83336106888585610e84565b61079e565b6106978383610932565b826001600160a01b03167ffd38818f5291bf0bb3a2a48aadc06ba8757865d1dabd804585338aab3009dcb6836040516106d291815260200190565b60405180910390a2505050565b6106e7610876565b61039b6109ba565b6060600480546102ca90610de9565b60003361035b818585610817565b60608060008061071a6102bb565b6107226106ef565b6012600254935093509350935090919293565b6001600160a01b03918216600090815260016020908152604080832093909416825291909152205490565b610768610876565b6001600160a01b03811661079257604051631e4fbdf760e01b8152600060048201526024016103f7565b61079b81610968565b50565b6107ab83838360016109fd565b505050565b60006107bc8484610735565b9050600019811015610811578181101561080257604051637dc7a0d960e11b81526001600160a01b038416600482015260248101829052604481018390526064016103f7565b610811848484840360006109fd565b50505050565b6001600160a01b03831661084157604051634b637e8f60e11b8152600060048201526024016103f7565b6001600160a01b03821661086b5760405163ec442f0560e01b8152600060048201526024016103f7565b6107ab838383610ad2565b6005546001600160a01b0316331461039b5760405163118cdaa760e01b81523360048201526024016103f7565b6108ab610ae5565b6005805460ff60a01b191690557f5db9ee0a495bf2e6ff9c91a7834c1ba4fdd244a5e8aa4e537bd38aeae4b073aa335b6040516001600160a01b03909116815260200160405180910390a1565b6001600160a01b0382166109225760405163ec442f0560e01b8152600060048201526024016103f7565b61092e60008383610ad2565b5050565b6001600160a01b03821661095c57604051634b637e8f60e11b8152600060048201526024016103f7565b61092e82600083610ad2565b600580546001600160a01b038381166001600160a01b0319831681179093556040519116919082907f8be0079c531659141344cd1fd0a4f28419497f9722a3daafe3b4186f6b6457e090600090a35050565b6109c2610b0f565b6005805460ff60a01b1916600160a01b1790557f62e78cea01bee320cd4e420270b5ea74000d11b0c9f74754ebdbfc544b05a2586108db3390565b6001600160a01b038416610a275760405163e602df0560e01b8152600060048201526024016103f7565b6001600160a01b038316610a5157604051634a1406b160e11b8152600060048201526024016103f7565b6001600160a01b038085166000908152600160209081526040808320938716835292905220829055801561081157826001600160a01b0316846001600160a01b03167f8c5be1e5ebec7d5bd14f71427d1e84f3dd0314c0f7b2291e5b200ac8c7c3b92584604051610ac491815260200190565b60405180910390a350505050565b610ada610b0f565b6107ab838383610b3a565b600554600160a01b900460ff1661039b57604051638dfc202b60e01b815260040160405180910390fd5b600554600160a01b900460ff161561039b5760405163d93c066560e01b815260040160405180910390fd5b6001600160a01b038316610b65578060026000828254610b5a9190610e97565b90915550610bd79050565b6001600160a01b03831660009081526020819052604090205481811015610bb85760405163391434e360e21b81526001600160a01b038516600482015260248101829052604481018390526064016103f7565b6001600160a01b03841660009081526020819052604090209082900390555b6001600160a01b038216610bf357600280548290039055610c12565b6001600160a01b03821660009081526020819052604090208054820190555b816001600160a01b0316836001600160a01b03167fddf252ad1be2c89b69c2b068fc378daa952ba7f163c4a11628f55a4df523b3ef83604051610c5791815260200190565b60405180910390a3505050565b6000815180845260005b81811015610c8a57602081850181015186830182015201610c6e565b506000602082860101526020601f19601f83011685010191505092915050565b602081526000610cbd6020830184610c64565b9392505050565b80356001600160a01b0381168114610cdb57600080fd5b919050565b60008060408385031215610cf357600080fd5b610cfc83610cc4565b946020939093013593505050565b600080600060608486031215610d1f57600080fd5b610d2884610cc4565b9250610d3660208501610cc4565b9150604084013590509250925092565b600060208284031215610d5857600080fd5b5035919050565b600060208284031215610d7157600080fd5b610cbd82610cc4565b608081526000610d8d6080830187610c64565b8281036020840152610d9f8187610c64565b60ff95909516604084015250506060015292915050565b60008060408385031215610dc957600080fd5b610dd283610cc4565b9150610de060208401610cc4565b90509250929050565b600181811c90821680610dfd57607f821691505b602082108103610e1d57634e487b7160e01b600052602260045260246000fd5b50919050565b6020808252602b908201527f596573436f696e3a206275726e20616d6f756e74206d7573742062652067726560408201526a061746572207468616e20360ac1b606082015260800190565b634e487b7160e01b600052601160045260246000fd5b8181038181111561036157610361610e6e565b8082018082111561036157610361610e6e56fea2646970667358221220258a6e114a7e0e55f73a402f449f88084ef2e4f29d4dc898ecbe2ca67117ece764736f6c63430008140033",
  "linkReferences": {},
  "deployedLinkReferences": {}
}