{
  "_format": "hh-sol-artifact-1",
  "contractName": "YesCoinGuardianNFT",
  "sourceName": "contracts/YesCoinGuardianNFT.sol",
  "abi": [
    {
      "inputs": [
        {
          "internalType": "string",
          "name": "name",
          "type": "string"
        },
        {
          "internalType": "string",
          "name": "symbol",
          "type": "string"
        },
        {
          "internalType": "string",
          "name": "baseURI",
          "type": "string"
        }
      ],
      "stateMutability": "nonpayable",
      "type": "constructor"
    },
    {
      "inputs": [],
      "name": "ERC721EnumerableForbiddenBatchMint",
      "type": "error"
    },
    {
      "inputs": [
        {
          "internalType": "address",
          "name": "sender",
          "type": "address"
        },
        {
          "internalType": "uint256",
          "name": "tokenId",
          "type": "uint256"
        },
        {
          "internalType": "address",
          "name": "owner",
          "type": "address"
        }
      ],
      "name": "ERC721IncorrectOwner",
      "type": "error"
    },
    {
      "inputs": [
        {
          "internalType": "address",
          "name": "operator",
          "type": "address"
        },
        {
          "internalType": "uint256",
          "name": "tokenId",
          "type": "uint256"
        }
      ],
      "name": "ERC721InsufficientApproval",
      "type": "error"
    },
    {
      "inputs": [
        {
          "internalType": "address",
          "name": "approver",
          "type": "address"
        }
      ],
      "name": "ERC721InvalidApprover",
      "type": "error"
    },
    {
      "inputs": [
        {
          "internalType": "address",
          "name": "operator",
          "type": "address"
        }
      ],
      "name": "ERC721InvalidOperator",
      "type": "error"
    },
    {
      "inputs": [
        {
          "internalType": "address",
          "name": "owner",
          "type": "address"
        }
      ],
      "name": "ERC721InvalidOwner",
      "type": "error"
    },
    {
      "inputs": [
        {
          "internalType": "address",
          "name": "receiver",
          "type": "address"
        }
      ],
      "name": "ERC721InvalidReceiver",
      "type": "error"
    },
    {
      "inputs": [
        {
          "internalType": "address",
          "name": "sender",
          "type": "address"
        }
      ],
      "name": "ERC721InvalidSender",
      "type": "error"
    },
    {
      "inputs": [
        {
          "internalType": "uint256",
          "name": "tokenId",
          "type": "uint256"
        }
      ],
      "name": "ERC721NonexistentToken",
      "type": "error"
    },
    {
      "inputs": [
        {
          "internalType": "address",
          "name": "owner",
          "type": "address"
        },
        {
          "internalType": "uint256",
          "name": "index",
          "type": "uint256"
        }
      ],
      "name": "ERC721OutOfBoundsIndex",
      "type": "error"
    },
    {
      "inputs": [],
      "name": "EnforcedPause",
      "type": "error"
    },
    {
      "inputs": [],
      "name": "ExpectedPause",
      "type": "error"
    },
    {
      "inputs": [
        {
          "internalType": "address",
          "name": "owner",
          "type": "address"
        }
      ],
      "name": "OwnableInvalidOwner",
      "type": "error"
    },
    {
      "inputs": [
        {
          "internalType": "address",
          "name": "account",
          "type": "address"
        }
      ],
      "name": "OwnableUnauthorizedAccount",
      "type": "error"
    },
    {
      "inputs": [],
      "name": "ReentrancyGuardReentrantCall",
      "type": "error"
    },
    {
      "anonymous": false,
      "inputs": [
        {
          "indexed": true,
          "internalType": "address",
          "name": "owner",
          "type": "address"
        },
        {
          "indexed": true,
          "internalType": "address",
          "name": "approved",
          "type": "address"
        },
        {
          "indexed": true,
          "internalType": "uint256",
          "name": "tokenId",
          "type": "uint256"
        }
      ],
      "name": "Approval",
      "type": "event"
    },
    {
      "anonymous": false,
      "inputs": [
        {
          "indexed": true,
          "internalType": "address",
          "name": "owner",
          "type": "address"
        },
        {
          "indexed": true,
          "internalType": "address",
          "name": "operator",
          "type": "address"
        },
        {
          "indexed": false,
          "internalType": "bool",
          "name": "approved",
          "type": "bool"
        }
      ],
      "name": "ApprovalForAll",
      "type": "event"
    },
    {
      "anonymous": false,
      "inputs": [
        {
          "indexed": false,
          "internalType": "string",
          "name": "newBaseURI",
          "type": "string"
        }
      ],
      "name": "BaseURIUpdated",
      "type": "event"
    },
    {
      "anonymous": false,
      "inputs": [
        {
          "indexed": true,
          "internalType": "address",
          "name": "minter",
          "type": "address"
        },
        {
          "indexed": true,
          "internalType": "uint256",
          "name": "tokenId",
          "type": "uint256"
        },
        {
          "indexed": true,
          "internalType": "address",
          "name": "referrer",
          "type": "address"
        }
      ],
      "name": "NFTMinted",
      "type": "event"
    },
    {
      "anonymous": false,
      "inputs": [
        {
          "indexed": true,
          "internalType": "address",
          "name": "previousOwner",
          "type": "address"
        },
        {
          "indexed": true,
          "internalType": "address",
          "name": "newOwner",
          "type": "address"
        }
      ],
      "name": "OwnershipTransferred",
      "type": "event"
    },
    {
      "anonymous": false,
      "inputs": [
        {
          "indexed": false,
          "internalType": "address",
          "name": "account",
          "type": "address"
        }
      ],
      "name": "Paused",
      "type": "event"
    },
    {
      "anonymous": false,
      "inputs": [
        {
          "indexed": true,
          "internalType": "address",
          "name": "referrer",
          "type": "address"
        },
        {
          "indexed": true,
          "internalType": "address",
          "name": "minter",
          "type": "address"
        },
        {
          "indexed": false,
          "internalType": "uint256",
          "name": "bnbReward",
          "type": "uint256"
        },
        {
          "indexed": false,
          "internalType": "uint256",
          "name": "yesReward",
          "type": "uint256"
        }
      ],
      "name": "ReferralReward",
      "type": "event"
    },
    {
      "anonymous": false,
      "inputs": [
        {
          "indexed": true,
          "internalType": "address",
          "name": "referrer",
          "type": "address"
        },
        {
          "indexed": false,
          "internalType": "uint256",
          "name": "bnbAmount",
          "type": "uint256"
        },
        {
          "indexed": false,
          "internalType": "uint256",
          "name": "yesAmount",
          "type": "uint256"
        }
      ],
      "name": "RewardsClaimed",
      "type": "event"
    },
    {
      "anonymous": false,
      "inputs": [
        {
          "indexed": true,
          "internalType": "address",
          "name": "from",
          "type": "address"
        },
        {
          "indexed": true,
          "internalType": "address",
          "name": "to",
          "type": "address"
        },
        {
          "indexed": true,
          "internalType": "uint256",
          "name": "tokenId",
          "type": "uint256"
        }
      ],
      "name": "Transfer",
      "type": "event"
    },
    {
      "anonymous": false,
      "inputs": [
        {
          "indexed": false,
          "internalType": "address",
          "name": "account",
          "type": "address"
        }
      ],
      "name": "Unpaused",
      "type": "event"
    },
    {
      "inputs": [],
      "name": "MAX_SUPPLY",
      "outputs": [
        {
          "internalType": "uint256",
          "name": "",
          "type": "uint256"
        }
      ],
      "stateMutability": "view",
      "type": "function"
    },
    {
      "inputs": [],
      "name": "MINT_PRICE",
      "outputs": [
        {
          "internalType": "uint256",
          "name": "",
          "type": "uint256"
        }
      ],
      "stateMutability": "view",
      "type": "function"
    },
    {
      "inputs": [],
      "name": "REFERRAL_REWARD_BNB",
      "outputs": [
        {
          "internalType": "uint256",
          "name": "",
          "type": "uint256"
        }
      ],
      "stateMutability": "view",
      "type": "function"
    },
    {
      "inputs": [],
      "name": "REFERRAL_REWARD_YES",
      "outputs": [
        {
          "internalType": "uint256",
          "name": "",
          "type": "uint256"
        }
      ],
      "stateMutability": "view",
      "type": "function"
    },
    {
      "inputs": [
        {
          "internalType": "address",
          "name": "to",
          "type": "address"
        },
        {
          "internalType": "uint256",
          "name": "tokenId",
          "type": "uint256"
        }
      ],
      "name": "approve",
      "outputs": [],
      "stateMutability": "nonpayable",
      "type": "function"
    },
    {
      "inputs": [
        {
          "internalType": "address",
          "name": "owner",
          "type": "address"
        }
      ],
      "name": "balanceOf",
      "outputs": [
        {
          "internalType": "uint256",
          "name": "",
          "type": "uint256"
        }
      ],
      "stateMutability": "view",
      "type": "function"
    },
    {
      "inputs": [],
      "name": "claimBNBRewards",
      "outputs": [],
      "stateMutability": "nonpayable",
      "type": "function"
    },
    {
      "inputs": [
        {
          "internalType": "uint256",
          "name": "amount",
          "type": "uint256"
        }
      ],
      "name": "emergencyWithdraw",
      "outputs": [],
      "stateMutability": "nonpayable",
      "type": "function"
    },
    {
      "inputs": [
        {
          "internalType": "uint256",
          "name": "tokenId",
          "type": "uint256"
        }
      ],
      "name": "getApproved",
      "outputs": [
        {
          "internalType": "address",
          "name": "",
          "type": "address"
        }
      ],
      "stateMutability": "view",
      "type": "function"
    },
    {
      "inputs": [],
      "name": "getMintProgress",
      "outputs": [
        {
          "internalType": "uint256",
          "name": "current",
          "type": "uint256"
        },
        {
          "internalType": "uint256",
          "name": "maximum",
          "type": "uint256"
        },
        {
          "internalType": "uint256",
          "name": "percentage",
          "type": "uint256"
        }
      ],
      "stateMutability": "view",
      "type": "function"
    },
    {
      "inputs": [
        {
          "internalType": "address",
          "name": "user",
          "type": "address"
        }
      ],
      "name": "getReferralInfo",
      "outputs": [
        {
          "internalType": "address",
          "name": "referrer",
          "type": "address"
        },
        {
          "internalType": "uint256",
          "name": "referralCount",
          "type": "uint256"
        },
        {
          "internalType": "uint256",
          "name": "pendingBNB",
          "type": "uint256"
        },
        {
          "internalType": "uint256",
          "name": "pendingYES",
          "type": "uint256"
        }
      ],
      "stateMutability": "view",
      "type": "function"
    },
    {
      "inputs": [
        {
          "internalType": "address",
          "name": "owner",
          "type": "address"
        },
        {
          "internalType": "address",
          "name": "operator",
          "type": "address"
        }
      ],
      "name": "isApprovedForAll",
      "outputs": [
        {
          "internalType": "bool",
          "name": "",
          "type": "bool"
        }
      ],
      "stateMutability": "view",
      "type": "function"
    },
    {
      "inputs": [
        {
          "internalType": "address",
          "name": "referrer",
          "type": "address"
        }
      ],
      "name": "mint",
      "outputs": [],
      "stateMutability": "payable",
      "type": "function"
    },
    {
      "inputs": [],
      "name": "name",
      "outputs": [
        {
          "internalType": "string",
          "name": "",
          "type": "string"
        }
      ],
      "stateMutability": "view",
      "type": "function"
    },
    {
      "inputs": [],
      "name": "owner",
      "outputs": [
        {
          "internalType": "address",
          "name": "",
          "type": "address"
        }
      ],
      "stateMutability": "view",
      "type": "function"
    },
    {
      "inputs": [
        {
          "internalType": "uint256",
          "name": "tokenId",
          "type": "uint256"
        }
      ],
      "name": "ownerOf",
      "outputs": [
        {
          "internalType": "address",
          "name": "",
          "type": "address"
        }
      ],
      "stateMutability": "view",
      "type": "function"
    },
    {
      "inputs": [],
      "name": "pause",
      "outputs": [],
      "stateMutability": "nonpayable",
      "type": "function"
    },
    {
      "inputs": [],
      "name": "paused",
      "outputs": [
        {
          "internalType": "bool",
          "name": "",
          "type": "bool"
        }
      ],
      "stateMutability": "view",
      "type": "function"
    },
    {
      "inputs": [
        {
          "internalType": "address",
          "name": "",
          "type": "address"
        }
      ],
      "name": "pendingBNBRewards",
      "outputs": [
        {
          "internalType": "uint256",
          "name": "",
          "type": "uint256"
        }
      ],
      "stateMutability": "view",
      "type": "function"
    },
    {
      "inputs": [
        {
          "internalType": "address",
          "name": "",
          "type": "address"
        }
      ],
      "name": "pendingYESRewards",
      "outputs": [
        {
          "internalType": "uint256",
          "name": "",
          "type": "uint256"
        }
      ],
      "stateMutability": "view",
      "type": "function"
    },
    {
      "inputs": [
        {
          "internalType": "address",
          "name": "",
          "type": "address"
        }
      ],
      "name": "referralCounts",
      "outputs": [
        {
          "internalType": "uint256",
          "name": "",
          "type": "uint256"
        }
      ],
      "stateMutability": "view",
      "type": "function"
    },
    {
      "inputs": [
        {
          "internalType": "address",
          "name": "",
          "type": "address"
        }
      ],
      "name": "referrers",
      "outputs": [
        {
          "internalType": "address",
          "name": "",
          "type": "address"
        }
      ],
      "stateMutability": "view",
      "type": "function"
    },
    {
      "inputs": [],
      "name": "renounceOwnership",
      "outputs": [],
      "stateMutability": "nonpayable",
      "type": "function"
    },
    {
      "inputs": [
        {
          "internalType": "address",
          "name": "from",
          "type": "address"
        },
        {
          "internalType": "address",
          "name": "to",
          "type": "address"
        },
        {
          "internalType": "uint256",
          "name": "tokenId",
          "type": "uint256"
        }
      ],
      "name": "safeTransferFrom",
      "outputs": [],
      "stateMutability": "nonpayable",
      "type": "function"
    },
    {
      "inputs": [
        {
          "internalType": "address",
          "name": "from",
          "type": "address"
        },
        {
          "internalType": "address",
          "name": "to",
          "type": "address"
        },
        {
          "internalType": "uint256",
          "name": "tokenId",
          "type": "uint256"
        },
        {
          "internalType": "bytes",
          "name": "data",
          "type": "bytes"
        }
      ],
      "name": "safeTransferFrom",
      "outputs": [],
      "stateMutability": "nonpayable",
      "type": "function"
    },
    {
      "inputs": [
        {
          "internalType": "address",
          "name": "operator",
          "type": "address"
        },
        {
          "internalType": "bool",
          "name": "approved",
          "type": "bool"
        }
      ],
      "name": "setApprovalForAll",
      "outputs": [],
      "stateMutability": "nonpayable",
      "type": "function"
    },
    {
      "inputs": [
        {
          "internalType": "string",
          "name": "baseURI",
          "type": "string"
        }
      ],
      "name": "setBaseURI",
      "outputs": [],
      "stateMutability": "nonpayable",
      "type": "function"
    },
    {
      "inputs": [
        {
          "internalType": "bytes4",
          "name": "interfaceId",
          "type": "bytes4"
        }
      ],
      "name": "supportsInterface",
      "outputs": [
        {
          "internalType": "bool",
          "name": "",
          "type": "bool"
        }
      ],
      "stateMutability": "view",
      "type": "function"
    },
    {
      "inputs": [],
      "name": "symbol",
      "outputs": [
        {
          "internalType": "string",
          "name": "",
          "type": "string"
        }
      ],
      "stateMutability": "view",
      "type": "function"
    },
    {
      "inputs": [
        {
          "internalType": "uint256",
          "name": "index",
          "type": "uint256"
        }
      ],
      "name": "tokenByIndex",
      "outputs": [
        {
          "internalType": "uint256",
          "name": "",
          "type": "uint256"
        }
      ],
      "stateMutability": "view",
      "type": "function"
    },
    {
      "inputs": [
        {
          "internalType": "address",
          "name": "owner",
          "type": "address"
        },
        {
          "internalType": "uint256",
          "name": "index",
          "type": "uint256"
        }
      ],
      "name": "tokenOfOwnerByIndex",
      "outputs": [
        {
          "internalType": "uint256",
          "name": "",
          "type": "uint256"
        }
      ],
      "stateMutability": "view",
      "type": "function"
    },
    {
      "inputs": [
        {
          "internalType": "uint256",
          "name": "tokenId",
          "type": "uint256"
        }
      ],
      "name": "tokenURI",
      "outputs": [
        {
          "internalType": "string",
          "name": "",
          "type": "string"
        }
      ],
      "stateMutability": "view",
      "type": "function"
    },
    {
      "inputs": [],
      "name": "totalSupply",
      "outputs": [
        {
          "internalType": "uint256",
          "name": "",
          "type": "uint256"
        }
      ],
      "stateMutability": "view",
      "type": "function"
    },
    {
      "inputs": [
        {
          "internalType": "address",
          "name": "from",
          "type": "address"
        },
        {
          "internalType": "address",
          "name": "to",
          "type": "address"
        },
        {
          "internalType": "uint256",
          "name": "tokenId",
          "type": "uint256"
        }
      ],
      "name": "transferFrom",
      "outputs": [],
      "stateMutability": "nonpayable",
      "type": "function"
    },
    {
      "inputs": [
        {
          "internalType": "address",
          "name": "newOwner",
          "type": "address"
        }
      ],
      "name": "transferOwnership",
      "outputs": [],
      "stateMutability": "nonpayable",
      "type": "function"
    },
    {
      "inputs": [],
      "name": "unpause",
      "outputs": [],
      "stateMutability": "nonpayable",
      "type": "function"
    },
    {
      "inputs": [],
      "name": "withdraw",
      "outputs": [],
      "stateMutability": "nonpayable",
      "type": "function"
    }
  ],
  "bytecode": "0x60806040526001600d553480156200001657600080fd5b5060405162002528380380620025288339810160408190526200003991620001cb565b33838360006200004a8382620002eb565b506001620000598282620002eb565b5050506001600160a01b0381166200008b57604051631e4fbdf760e01b81526000600482015260240160405180910390fd5b6200009681620000b4565b506001600b55600e620000aa8282620002eb565b50505050620003b7565b600a80546001600160a01b038381166001600160a01b0319831681179093556040519116919082907f8be0079c531659141344cd1fd0a4f28419497f9722a3daafe3b4186f6b6457e090600090a35050565b634e487b7160e01b600052604160045260246000fd5b600082601f8301126200012e57600080fd5b81516001600160401b03808211156200014b576200014b62000106565b604051601f8301601f19908116603f0116810190828211818310171562000176576200017662000106565b816040528381526020925086838588010111156200019357600080fd5b600091505b83821015620001b7578582018301518183018401529082019062000198565b600093810190920192909252949350505050565b600080600060608486031215620001e157600080fd5b83516001600160401b0380821115620001f957600080fd5b62000207878388016200011c565b945060208601519150808211156200021e57600080fd5b6200022c878388016200011c565b935060408601519150808211156200024357600080fd5b5062000252868287016200011c565b9150509250925092565b600181811c908216806200027157607f821691505b6020821081036200029257634e487b7160e01b600052602260045260246000fd5b50919050565b601f821115620002e657600081815260208120601f850160051c81016020861015620002c15750805b601f850160051c820191505b81811015620002e257828155600101620002cd565b5050505b505050565b81516001600160401b0381111562000307576200030762000106565b6200031f816200031884546200025c565b8462000298565b602080601f8311600181146200035757600084156200033e5750858301515b600019600386901b1c1916600185901b178555620002e2565b600085815260208120601f198616915b82811015620003885788860151825594840194600190910190840162000367565b5085821015620003a75787850151600019600388901b60f8161c191681555b5050505050600190811b01905550565b61216180620003c76000396000f3fe60806040526004361061021a5760003560e01c80635c975abb1161012357806395d89b41116100ab578063cec297a01161006f578063cec297a01461066c578063e8ff8e4f14610699578063e985e9c5146106c6578063f2fde38b146106e6578063fc32f2aa1461070657600080fd5b806395d89b41146105dc578063a22cb465146105f1578063b88d4fde14610611578063c002d23d14610631578063c87b56dd1461064c57600080fd5b8063715018a6116100f2578063715018a61461055b57806383225980146105705780638456cb591461058e5780638b2294fa146105a35780638da5cb5b146105be57600080fd5b80635c975abb146104f05780636352211e146105085780636a6278421461052857806370a082311461053b57600080fd5b806332cb6b0c116101a65780634a3b68cc116101755780634a3b68cc146104455780634e94650e1461047b5780634f6ccce7146104905780635312ea8e146104b057806355f804b3146104d057600080fd5b806332cb6b0c146103e55780633ccfd60b146103fb5780633f4ba83a1461041057806342842e0e1461042557600080fd5b80630b17b555116101ed5780630b17b555146102d057806318160ddd1461030057806321874ae21461031f57806323b872dd146103a55780632f745c59146103c557600080fd5b806301ffc9a71461021f57806306fdde0314610254578063081812fc14610276578063095ea7b3146102ae575b600080fd5b34801561022b57600080fd5b5061023f61023a366004611bb2565b610733565b60405190151581526020015b60405180910390f35b34801561026057600080fd5b50610269610744565b60405161024b9190611c1f565b34801561028257600080fd5b50610296610291366004611c32565b6107d6565b6040516001600160a01b03909116815260200161024b565b3480156102ba57600080fd5b506102ce6102c9366004611c67565b6107ff565b005b3480156102dc57600080fd5b506102e561080e565b6040805193845260208401929092529082015260600161024b565b34801561030c57600080fd5b506008545b60405190815260200161024b565b34801561032b57600080fd5b5061037b61033a366004611c91565b6001600160a01b039081166000908152600f602090815260408083205460108352818420546011845282852054601290945291909320549290931693909190565b604080516001600160a01b039095168552602085019390935291830152606082015260800161024b565b3480156103b157600080fd5b506102ce6103c0366004611cac565b610846565b3480156103d157600080fd5b506103116103e0366004611c67565b6108d6565b3480156103f157600080fd5b5061031161271081565b34801561040757600080fd5b506102ce61093b565b34801561041c57600080fd5b506102ce6109c2565b34801561043157600080fd5b506102ce610440366004611cac565b6109d4565b34801561045157600080fd5b50610296610460366004611c91565b600f602052600090815260409020546001600160a01b031681565b34801561048757600080fd5b506102ce6109f4565b34801561049c57600080fd5b506103116104ab366004611c32565b610b2b565b3480156104bc57600080fd5b506102ce6104cb366004611c32565b610b84565b3480156104dc57600080fd5b506102ce6104eb366004611d74565b610bd3565b3480156104fc57600080fd5b50600c5460ff1661023f565b34801561051457600080fd5b50610296610523366004611c32565b610c22565b6102ce610536366004611c91565b610c2d565b34801561054757600080fd5b50610311610556366004611c91565b610ef2565b34801561056757600080fd5b506102ce610f3a565b34801561057c57600080fd5b5061031169d3c21bcecceda100000081565b34801561059a57600080fd5b506102ce610f4c565b3480156105af57600080fd5b506103116611c37937e0800081565b3480156105ca57600080fd5b50600a546001600160a01b0316610296565b3480156105e857600080fd5b50610269610f5c565b3480156105fd57600080fd5b506102ce61060c366004611dbd565b610f6b565b34801561061d57600080fd5b506102ce61062c366004611df9565b610f76565b34801561063d57600080fd5b50610311662386f26fc1000081565b34801561065857600080fd5b50610269610667366004611c32565b610f8e565b34801561067857600080fd5b50610311610687366004611c91565b60106020526000908152604090205481565b3480156106a557600080fd5b506103116106b4366004611c91565b60116020526000908152604090205481565b3480156106d257600080fd5b5061023f6106e1366004611e75565b610ff6565b3480156106f257600080fd5b506102ce610701366004611c91565b611024565b34801561071257600080fd5b50610311610721366004611c91565b60126020526000908152604090205481565b600061073e8261105f565b92915050565b60606000805461075390611ea8565b80601f016020809104026020016040519081016040528092919081815260200182805461077f90611ea8565b80156107cc5780601f106107a1576101008083540402835291602001916107cc565b820191906000526020600020905b8154815290600101906020018083116107af57829003601f168201915b5050505050905090565b60006107e182611084565b506000828152600460205260409020546001600160a01b031661073e565b61080a8282336110bd565b5050565b60008060006001600d546108229190611ef8565b9250612710915081610835846064611f0b565b61083f9190611f22565b9050909192565b6001600160a01b03821661087557604051633250574960e11b8152600060048201526024015b60405180910390fd5b60006108828383336110ca565b9050836001600160a01b0316816001600160a01b0316146108d0576040516364283d7b60e01b81526001600160a01b038086166004830152602482018490528216604482015260640161086c565b50505050565b60006108e183610ef2565b82106109125760405163295f44f760e21b81526001600160a01b03841660048201526024810183905260440161086c565b506001600160a01b03919091166000908152600660209081526040808320938352929052205490565b6109436110df565b47806109885760405162461bcd60e51b81526020600482015260146024820152734e6f2066756e647320746f20776974686472617760601b604482015260640161086c565b600a546040516001600160a01b039091169082156108fc029083906000818181858888f1935050505015801561080a573d6000803e3d6000fd5b6109ca6110df565b6109d261110c565b565b6109ef83838360405180602001604052806000815250610f76565b505050565b6109fc61115e565b3360009081526011602052604090205480610a595760405162461bcd60e51b815260206004820152601760248201527f4e6f20424e42207265776172647320746f20636c61696d000000000000000000604482015260640161086c565b80471015610aa95760405162461bcd60e51b815260206004820152601d60248201527f496e73756666696369656e7420636f6e74726163742062616c616e6365000000604482015260640161086c565b336000818152601160205260408082208290555183156108fc0291849190818181858888f19350505050158015610ae4573d6000803e3d6000fd5b50604080518281526000602082015233917fdacbdde355ba930696a362ea6738feb9f8bd52dfb3d81947558fd3217e23e325910160405180910390a2506109d26001600b55565b6000610b3660085490565b8210610b5f5760405163295f44f760e21b8152600060048201526024810183905260440161086c565b60088281548110610b7257610b72611f44565b90600052602060002001549050919050565b610b8c6110df565b478111156109885760405162461bcd60e51b8152602060048201526014602482015273496e73756666696369656e742062616c616e636560601b604482015260640161086c565b610bdb6110df565b600e610be78282611fa0565b507f6741b2fc379fad678116fe3d4d4b9a1a184ab53ba36b86ad0fa66340b1ab41ad81604051610c179190611c1f565b60405180910390a150565b600061073e82611084565b610c3561115e565b610c3d611188565b612710600d541115610c865760405162461bcd60e51b815260206004820152601260248201527113585e081cdd5c1c1b1e481c995858da195960721b604482015260640161086c565b662386f26fc10000341015610cd45760405162461bcd60e51b8152602060048201526014602482015273125b9cdd59999a58da595b9d081c185e5b595b9d60621b604482015260640161086c565b336001600160a01b03821603610d245760405162461bcd60e51b815260206004820152601560248201527421b0b73737ba103932b332b9103cb7bab939b2b63360591b604482015260640161086c565b600d80549081906000610d3683612060565b9190505550610d4533826111ac565b6001600160a01b03821615610e5e57336000908152600f6020908152604080832080546001600160a01b0319166001600160a01b038716908117909155835260109091528120805491610d9783612060565b90915550506001600160a01b038216600090815260116020526040812080546611c37937e080009290610dcb908490612079565b90915550506001600160a01b0382166000908152601260205260408120805469d3c21bcecceda10000009290610e02908490612079565b9091555050604080516611c37937e08000815269d3c21bcecceda1000000602082015233916001600160a01b038516917fbd7e5be34537a425747cf06d84eca4d59c865e2002b7d5f36f14558bdc5ae8cd910160405180910390a35b6040516001600160a01b03831690829033907f89a2c92e65780856b461f06435fffd0fb445240ba3cfee7e8f18e01dca40c07390600090a4662386f26fc10000341115610ee457336108fc610eba662386f26fc1000034611ef8565b6040518115909202916000818181858888f19350505050158015610ee2573d6000803e3d6000fd5b505b50610eef6001600b55565b50565b60006001600160a01b038216610f1e576040516322718ad960e21b81526000600482015260240161086c565b506001600160a01b031660009081526003602052604090205490565b610f426110df565b6109d260006111c6565b610f546110df565b6109d2611218565b60606001805461075390611ea8565b61080a338383611255565b610f81848484610846565b6108d033858585856112f4565b6060610f9982611084565b506000610fa461141f565b90506000815111610fc45760405180602001604052806000815250610fef565b80610fce8461142e565b604051602001610fdf92919061208c565b6040516020818303038152906040525b9392505050565b6001600160a01b03918216600090815260056020908152604080832093909416825291909152205460ff1690565b61102c6110df565b6001600160a01b03811661105657604051631e4fbdf760e01b81526000600482015260240161086c565b610eef816111c6565b60006001600160e01b0319821663780e9d6360e01b148061073e575061073e826114c1565b6000818152600260205260408120546001600160a01b03168061073e57604051637e27328960e01b81526004810184905260240161086c565b6109ef8383836001611511565b60006110d7848484611617565b949350505050565b600a546001600160a01b031633146109d25760405163118cdaa760e01b815233600482015260240161086c565b6111146116e4565b600c805460ff191690557f5db9ee0a495bf2e6ff9c91a7834c1ba4fdd244a5e8aa4e537bd38aeae4b073aa335b6040516001600160a01b03909116815260200160405180910390a1565b6002600b540361118157604051633ee5aeb560e01b815260040160405180910390fd5b6002600b55565b600c5460ff16156109d25760405163d93c066560e01b815260040160405180910390fd5b61080a828260405180602001604052806000815250611707565b600a80546001600160a01b038381166001600160a01b0319831681179093556040519116919082907f8be0079c531659141344cd1fd0a4f28419497f9722a3daafe3b4186f6b6457e090600090a35050565b611220611188565b600c805460ff191660011790557f62e78cea01bee320cd4e420270b5ea74000d11b0c9f74754ebdbfc544b05a2586111413390565b6001600160a01b03821661128757604051630b61174360e31b81526001600160a01b038316600482015260240161086c565b6001600160a01b03838116600081815260056020908152604080832094871680845294825291829020805460ff191686151590811790915591519182527f17307eab39ab6107e8899845ad3d59bd9653f200f220920489ca2b5937696c31910160405180910390a3505050565b6001600160a01b0383163b1561141857604051630a85bd0160e11b81526001600160a01b0384169063150b7a02906113369088908890879087906004016120bb565b6020604051808303816000875af1925050508015611371575060408051601f3d908101601f1916820190925261136e918101906120f8565b60015b6113da573d80801561139f576040519150601f19603f3d011682016040523d82523d6000602084013e6113a4565b606091505b5080516000036113d257604051633250574960e11b81526001600160a01b038516600482015260240161086c565b805160208201fd5b6001600160e01b03198116630a85bd0160e11b1461141657604051633250574960e11b81526001600160a01b038516600482015260240161086c565b505b5050505050565b6060600e805461075390611ea8565b6060600061143b8361171f565b600101905060008167ffffffffffffffff81111561145b5761145b611ce8565b6040519080825280601f01601f191660200182016040528015611485576020820181803683370190505b5090508181016020015b600019016f181899199a1a9b1b9c1cb0b131b232b360811b600a86061a8153600a850494508461148f57509392505050565b60006001600160e01b031982166380ac58cd60e01b14806114f257506001600160e01b03198216635b5e139f60e01b145b8061073e57506301ffc9a760e01b6001600160e01b031983161461073e565b808061152557506001600160a01b03821615155b156115e757600061153584611084565b90506001600160a01b038316158015906115615750826001600160a01b0316816001600160a01b031614155b801561157457506115728184610ff6565b155b1561159d5760405163a9fbf51f60e01b81526001600160a01b038416600482015260240161086c565b81156115e55783856001600160a01b0316826001600160a01b03167f8c5be1e5ebec7d5bd14f71427d1e84f3dd0314c0f7b2291e5b200ac8c7c3b92560405160405180910390a45b505b5050600090815260046020526040902080546001600160a01b0319166001600160a01b0392909216919091179055565b6000806116258585856117f7565b90506001600160a01b0381166116825761167d84600880546000838152600960205260408120829055600182018355919091527ff3f7a9fe364faab93b216da50a3214154f22a0a2b415b23a84c8169e8b636ee30155565b6116a5565b846001600160a01b0316816001600160a01b0316146116a5576116a581856118f0565b6001600160a01b0385166116c1576116bc84611971565b6110d7565b846001600160a01b0316816001600160a01b0316146110d7576110d78585611a20565b600c5460ff166109d257604051638dfc202b60e01b815260040160405180910390fd5b6117118383611a70565b6109ef3360008585856112f4565b60008072184f03e93ff9f4daa797ed6e38ed64bf6a1f0160401b831061175e5772184f03e93ff9f4daa797ed6e38ed64bf6a1f0160401b830492506040015b6d04ee2d6d415b85acef8100000000831061178a576d04ee2d6d415b85acef8100000000830492506020015b662386f26fc1000083106117a857662386f26fc10000830492506010015b6305f5e10083106117c0576305f5e100830492506008015b61271083106117d457612710830492506004015b606483106117e6576064830492506002015b600a831061073e5760010192915050565b6000828152600260205260408120546001600160a01b039081169083161561182457611824818486611ad5565b6001600160a01b0381161561186257611841600085600080611511565b6001600160a01b038116600090815260036020526040902080546000190190555b6001600160a01b03851615611891576001600160a01b0385166000908152600360205260409020805460010190555b60008481526002602052604080822080546001600160a01b0319166001600160a01b0389811691821790925591518793918516917fddf252ad1be2c89b69c2b068fc378daa952ba7f163c4a11628f55a4df523b3ef91a4949350505050565b60006118fb83610ef2565b6000838152600760209081526040808320546001600160a01b038816845260069092529091209192509081831461195257600083815260208281526040808320548584528184208190558352600790915290208290555b6000938452600760209081526040808620869055938552525081205550565b60085460009061198390600190611ef8565b600083815260096020526040812054600880549394509092849081106119ab576119ab611f44565b9060005260206000200154905080600883815481106119cc576119cc611f44565b6000918252602080832090910192909255828152600990915260408082208490558582528120556008805480611a0457611a04612115565b6001900381819060005260206000200160009055905550505050565b60006001611a2d84610ef2565b611a379190611ef8565b6001600160a01b039093166000908152600660209081526040808320868452825280832085905593825260079052919091209190915550565b6001600160a01b038216611a9a57604051633250574960e11b81526000600482015260240161086c565b6000611aa8838360006110ca565b90506001600160a01b038116156109ef576040516339e3563760e11b81526000600482015260240161086c565b611ae0838383611b39565b6109ef576001600160a01b038316611b0e57604051637e27328960e01b81526004810182905260240161086c565b60405163177e802f60e01b81526001600160a01b03831660048201526024810182905260440161086c565b60006001600160a01b038316158015906110d75750826001600160a01b0316846001600160a01b03161480611b735750611b738484610ff6565b806110d75750506000908152600460205260409020546001600160a01b03908116911614919050565b6001600160e01b031981168114610eef57600080fd5b600060208284031215611bc457600080fd5b8135610fef81611b9c565b60005b83811015611bea578181015183820152602001611bd2565b50506000910152565b60008151808452611c0b816020860160208601611bcf565b601f01601f19169290920160200192915050565b602081526000610fef6020830184611bf3565b600060208284031215611c4457600080fd5b5035919050565b80356001600160a01b0381168114611c6257600080fd5b919050565b60008060408385031215611c7a57600080fd5b611c8383611c4b565b946020939093013593505050565b600060208284031215611ca357600080fd5b610fef82611c4b565b600080600060608486031215611cc157600080fd5b611cca84611c4b565b9250611cd860208501611c4b565b9150604084013590509250925092565b634e487b7160e01b600052604160045260246000fd5b600067ffffffffffffffff80841115611d1957611d19611ce8565b604051601f8501601f19908116603f01168101908282118183101715611d4157611d41611ce8565b81604052809350858152868686011115611d5a57600080fd5b858560208301376000602087830101525050509392505050565b600060208284031215611d8657600080fd5b813567ffffffffffffffff811115611d9d57600080fd5b8201601f81018413611dae57600080fd5b6110d784823560208401611cfe565b60008060408385031215611dd057600080fd5b611dd983611c4b565b915060208301358015158114611dee57600080fd5b809150509250929050565b60008060008060808587031215611e0f57600080fd5b611e1885611c4b565b9350611e2660208601611c4b565b925060408501359150606085013567ffffffffffffffff811115611e4957600080fd5b8501601f81018713611e5a57600080fd5b611e6987823560208401611cfe565b91505092959194509250565b60008060408385031215611e8857600080fd5b611e9183611c4b565b9150611e9f60208401611c4b565b90509250929050565b600181811c90821680611ebc57607f821691505b602082108103611edc57634e487b7160e01b600052602260045260246000fd5b50919050565b634e487b7160e01b600052601160045260246000fd5b8181038181111561073e5761073e611ee2565b808202811582820484141761073e5761073e611ee2565b600082611f3f57634e487b7160e01b600052601260045260246000fd5b500490565b634e487b7160e01b600052603260045260246000fd5b601f8211156109ef57600081815260208120601f850160051c81016020861015611f815750805b601f850160051c820191505b8181101561141657828155600101611f8d565b815167ffffffffffffffff811115611fba57611fba611ce8565b611fce81611fc88454611ea8565b84611f5a565b602080601f8311600181146120035760008415611feb5750858301515b600019600386901b1c1916600185901b178555611416565b600085815260208120601f198616915b8281101561203257888601518255948401946001909101908401612013565b50858210156120505787850151600019600388901b60f8161c191681555b5050505050600190811b01905550565b60006001820161207257612072611ee2565b5060010190565b8082018082111561073e5761073e611ee2565b6000835161209e818460208801611bcf565b8351908301906120b2818360208801611bcf565b01949350505050565b6001600160a01b03858116825284166020820152604081018390526080606082018190526000906120ee90830184611bf3565b9695505050505050565b60006020828403121561210a57600080fd5b8151610fef81611b9c565b634e487b7160e01b600052603160045260246000fdfea264697066735822122099e99f86d37dfa1db913a2921bc1098f2f09e09dc0250b047007f9b44f3e31ee64736f6c63430008140033",
  "linkReferences": {},
  "deployedLinkReferences": {}
}