{
  "_format": "hh-sol-artifact-1",
  "contractName": "YesCoinAirdrop",
  "sourceName": "contracts/YesCoinAirdrop.sol",
  "abi": [
    {
      "inputs": [
        {
          "internalType": "address",
          "name": "_yesToken",
          "type": "address"
        },
        {
          "internalType": "bytes32",
          "name": "_merkleRoot",
          "type": "bytes32"
        },
        {
          "internalType": "address",
          "name": "_backendSigner",
          "type": "address"
        }
      ],
      "stateMutability": "nonpayable",
      "type": "constructor"
    },
    {
      "inputs": [],
      "name": "ECDSAInvalidSignature",
      "type": "error"
    },
    {
      "inputs": [
        {
          "internalType": "uint256",
          "name": "length",
          "type": "uint256"
        }
      ],
      "name": "ECDSAInvalidSignatureLength",
      "type": "error"
    },
    {
      "inputs": [
        {
          "internalType": "bytes32",
          "name": "s",
          "type": "bytes32"
        }
      ],
      "name": "ECDSAInvalidSignatureS",
      "type": "error"
    },
    {
      "inputs": [],
      "name": "EnforcedPause",
      "type": "error"
    },
    {
      "inputs": [],
      "name": "ExpectedPause",
      "type": "error"
    },
    {
      "inputs": [
        {
          "internalType": "address",
          "name": "owner",
          "type": "address"
        }
      ],
      "name": "OwnableInvalidOwner",
      "type": "error"
    },
    {
      "inputs": [
        {
          "internalType": "address",
          "name": "account",
          "type": "address"
        }
      ],
      "name": "OwnableUnauthorizedAccount",
      "type": "error"
    },
    {
      "inputs": [],
      "name": "ReentrancyGuardReentrantCall",
      "type": "error"
    },
    {
      "inputs": [
        {
          "internalType": "address",
          "name": "token",
          "type": "address"
        }
      ],
      "name": "SafeERC20FailedOperation",
      "type": "error"
    },
    {
      "anonymous": false,
      "inputs": [
        {
          "indexed": true,
          "internalType": "address",
          "name": "claimer",
          "type": "address"
        },
        {
          "indexed": false,
          "internalType": "uint256",
          "name": "amount",
          "type": "uint256"
        },
        {
          "indexed": false,
          "internalType": "string",
          "name": "method",
          "type": "string"
        }
      ],
      "name": "AirdropClaimed",
      "type": "event"
    },
    {
      "anonymous": false,
      "inputs": [
        {
          "indexed": false,
          "internalType": "address",
          "name": "oldSigner",
          "type": "address"
        },
        {
          "indexed": false,
          "internalType": "address",
          "name": "newSigner",
          "type": "address"
        }
      ],
      "name": "BackendSignerUpdated",
      "type": "event"
    },
    {
      "anonymous": false,
      "inputs": [
        {
          "indexed": true,
          "internalType": "address",
          "name": "to",
          "type": "address"
        },
        {
          "indexed": false,
          "internalType": "uint256",
          "name": "amount",
          "type": "uint256"
        }
      ],
      "name": "EmergencyWithdraw",
      "type": "event"
    },
    {
      "anonymous": false,
      "inputs": [
        {
          "indexed": false,
          "internalType": "bytes32",
          "name": "oldRoot",
          "type": "bytes32"
        },
        {
          "indexed": false,
          "internalType": "bytes32",
          "name": "newRoot",
          "type": "bytes32"
        }
      ],
      "name": "MerkleRootUpdated",
      "type": "event"
    },
    {
      "anonymous": false,
      "inputs": [
        {
          "indexed": true,
          "internalType": "address",
          "name": "previousOwner",
          "type": "address"
        },
        {
          "indexed": true,
          "internalType": "address",
          "name": "newOwner",
          "type": "address"
        }
      ],
      "name": "OwnershipTransferred",
      "type": "event"
    },
    {
      "anonymous": false,
      "inputs": [
        {
          "indexed": false,
          "internalType": "address",
          "name": "account",
          "type": "address"
        }
      ],
      "name": "Paused",
      "type": "event"
    },
    {
      "anonymous": false,
      "inputs": [
        {
          "indexed": true,
          "internalType": "address",
          "name": "to",
          "type": "address"
        },
        {
          "indexed": false,
          "internalType": "uint256",
          "name": "amount",
          "type": "uint256"
        }
      ],
      "name": "TokensWithdrawn",
      "type": "event"
    },
    {
      "anonymous": false,
      "inputs": [
        {
          "indexed": false,
          "internalType": "address",
          "name": "account",
          "type": "address"
        }
      ],
      "name": "Unpaused",
      "type": "event"
    },
    {
      "anonymous": false,
      "inputs": [
        {
          "indexed": true,
          "internalType": "address",
          "name": "user",
          "type": "address"
        },
        {
          "indexed": false,
          "internalType": "bool",
          "name": "status",
          "type": "bool"
        }
      ],
      "name": "WhitelistUpdated",
      "type": "event"
    },
    {
      "inputs": [],
      "name": "AIRDROP_AMOUNT",
      "outputs": [
        {
          "internalType": "uint256",
          "name": "",
          "type": "uint256"
        }
      ],
      "stateMutability": "view",
      "type": "function"
    },
    {
      "inputs": [],
      "name": "backendSigner",
      "outputs": [
        {
          "internalType": "address",
          "name": "",
          "type": "address"
        }
      ],
      "stateMutability": "view",
      "type": "function"
    },
    {
      "inputs": [
        {
          "internalType": "address",
          "name": "user",
          "type": "address"
        },
        {
          "internalType": "bytes32[]",
          "name": "merkleProof",
          "type": "bytes32[]"
        }
      ],
      "name": "checkEligibility",
      "outputs": [
        {
          "internalType": "bool",
          "name": "eligible",
          "type": "bool"
        },
        {
          "internalType": "string",
          "name": "method",
          "type": "string"
        }
      ],
      "stateMutability": "view",
      "type": "function"
    },
    {
      "inputs": [
        {
          "internalType": "bytes32[]",
          "name": "merkleProof",
          "type": "bytes32[]"
        }
      ],
      "name": "claimWithMerkleProof",
      "outputs": [],
      "stateMutability": "nonpayable",
      "type": "function"
    },
    {
      "inputs": [
        {
          "internalType": "bytes",
          "name": "signature",
          "type": "bytes"
        },
        {
          "internalType": "uint256",
          "name": "nonce",
          "type": "uint256"
        }
      ],
      "name": "claimWithSignature",
      "outputs": [],
      "stateMutability": "nonpayable",
      "type": "function"
    },
    {
      "inputs": [],
      "name": "claimWithWhitelist",
      "outputs": [],
      "stateMutability": "nonpayable",
      "type": "function"
    },
    {
      "inputs": [
        {
          "internalType": "address",
          "name": "to",
          "type": "address"
        }
      ],
      "name": "emergencyWithdraw",
      "outputs": [],
      "stateMutability": "nonpayable",
      "type": "function"
    },
    {
      "inputs": [],
      "name": "getAirdropStats",
      "outputs": [
        {
          "internalType": "uint256",
          "name": "tokenBalance",
          "type": "uint256"
        },
        {
          "internalType": "uint256",
          "name": "totalClaimed_",
          "type": "uint256"
        },
        {
          "internalType": "uint256",
          "name": "totalClaimants_",
          "type": "uint256"
        },
        {
          "internalType": "uint256",
          "name": "remainingTokens",
          "type": "uint256"
        }
      ],
      "stateMutability": "view",
      "type": "function"
    },
    {
      "inputs": [
        {
          "internalType": "address",
          "name": "",
          "type": "address"
        }
      ],
      "name": "hasClaimed",
      "outputs": [
        {
          "internalType": "bool",
          "name": "",
          "type": "bool"
        }
      ],
      "stateMutability": "view",
      "type": "function"
    },
    {
      "inputs": [
        {
          "internalType": "address",
          "name": "",
          "type": "address"
        }
      ],
      "name": "isWhitelisted",
      "outputs": [
        {
          "internalType": "bool",
          "name": "",
          "type": "bool"
        }
      ],
      "stateMutability": "view",
      "type": "function"
    },
    {
      "inputs": [],
      "name": "merkleRoot",
      "outputs": [
        {
          "internalType": "bytes32",
          "name": "",
          "type": "bytes32"
        }
      ],
      "stateMutability": "view",
      "type": "function"
    },
    {
      "inputs": [],
      "name": "owner",
      "outputs": [
        {
          "internalType": "address",
          "name": "",
          "type": "address"
        }
      ],
      "stateMutability": "view",
      "type": "function"
    },
    {
      "inputs": [],
      "name": "pause",
      "outputs": [],
      "stateMutability": "nonpayable",
      "type": "function"
    },
    {
      "inputs": [],
      "name": "paused",
      "outputs": [
        {
          "internalType": "bool",
          "name": "",
          "type": "bool"
        }
      ],
      "stateMutability": "view",
      "type": "function"
    },
    {
      "inputs": [],
      "name": "renounceOwnership",
      "outputs": [],
      "stateMutability": "nonpayable",
      "type": "function"
    },
    {
      "inputs": [],
      "name": "totalClaimants",
      "outputs": [
        {
          "internalType": "uint256",
          "name": "",
          "type": "uint256"
        }
      ],
      "stateMutability": "view",
      "type": "function"
    },
    {
      "inputs": [],
      "name": "totalClaimed",
      "outputs": [
        {
          "internalType": "uint256",
          "name": "",
          "type": "uint256"
        }
      ],
      "stateMutability": "view",
      "type": "function"
    },
    {
      "inputs": [
        {
          "internalType": "address",
          "name": "newOwner",
          "type": "address"
        }
      ],
      "name": "transferOwnership",
      "outputs": [],
      "stateMutability": "nonpayable",
      "type": "function"
    },
    {
      "inputs": [],
      "name": "unpause",
      "outputs": [],
      "stateMutability": "nonpayable",
      "type": "function"
    },
    {
      "inputs": [
        {
          "internalType": "address",
          "name": "_newSigner",
          "type": "address"
        }
      ],
      "name": "updateBackendSigner",
      "outputs": [],
      "stateMutability": "nonpayable",
      "type": "function"
    },
    {
      "inputs": [
        {
          "internalType": "bytes32",
          "name": "_newMerkleRoot",
          "type": "bytes32"
        }
      ],
      "name": "updateMerkleRoot",
      "outputs": [],
      "stateMutability": "nonpayable",
      "type": "function"
    },
    {
      "inputs": [
        {
          "internalType": "address[]",
          "name": "users",
          "type": "address[]"
        },
        {
          "internalType": "bool",
          "name": "status",
          "type": "bool"
        }
      ],
      "name": "updateWhitelist",
      "outputs": [],
      "stateMutability": "nonpayable",
      "type": "function"
    },
    {
      "inputs": [
        {
          "internalType": "address",
          "name": "to",
          "type": "address"
        },
        {
          "internalType": "uint256",
          "name": "amount",
          "type": "uint256"
        }
      ],
      "name": "withdrawTokens",
      "outputs": [],
      "stateMutability": "nonpayable",
      "type": "function"
    },
    {
      "inputs": [],
      "name": "yesToken",
      "outputs": [
        {
          "internalType": "contract IERC20",
          "name": "",
          "type": "address"
        }
      ],
      "stateMutability": "view",
      "type": "function"
    }
  ],
  "bytecode": "0x60a06040523480156200001157600080fd5b5060405162001ded38038062001ded8339810160408190526200003491620001e3565b33806200005c57604051631e4fbdf760e01b8152600060048201526024015b60405180910390fd5b620000678162000176565b50600180556001600160a01b038316620000d95760405162461bcd60e51b815260206004820152602c60248201527f596573436f696e41697264726f703a20746f6b656e206164647265737320636160448201526b6e6e6f74206265207a65726f60a01b606482015260840162000053565b6001600160a01b038116620001475760405162461bcd60e51b815260206004820152602d60248201527f596573436f696e41697264726f703a207369676e65722061646472657373206360448201526c616e6e6f74206265207a65726f60981b606482015260840162000053565b6001600160a01b03928316608052600391909155600480546001600160a01b0319169190921617905562000224565b600080546001600160a01b038381166001600160a01b0319831681178455604051919092169283917f8be0079c531659141344cd1fd0a4f28419497f9722a3daafe3b4186f6b6457e09190a35050565b80516001600160a01b0381168114620001de57600080fd5b919050565b600080600060608486031215620001f957600080fd5b6200020484620001c6565b9250602084015191506200021b60408501620001c6565b90509250925092565b608051611b7c620002716000396000818161032f01528181610418015281816104f201528181610aa401528181610b8401528181610e790152818161122501526113060152611b7c6000f3fe608060405234801561001057600080fd5b50600436106101585760003560e01c8063715018a6116100c3578063aff177ca1161007c578063aff177ca146102d3578063c4d92a75146102e6578063d54ad2a11461030e578063eb382f3514610317578063f0d9bb201461032a578063f2fde38b1461035157600080fd5b8063715018a61461027357806373b2e80e1461027b5780638456cb591461029e57806387764571146102a6578063898cdb86146102af5780638da5cb5b146102c257600080fd5b80633af32abf116101155780633af32abf146101dc5780633f4ba83a1461020f5780634783f0ef146102175780635c975abb1461022a57806365d65e86146102355780636ff1c9bc1461026057600080fd5b806306b091f91461015d5780632b5b6872146101725780632eb4a7ab1461019757806332fc35c6146101a0578063330c7e06146101a857806333cac82a146101bb575b600080fd5b61017061016b3660046117a3565b610364565b005b6101846a084595161401484a00000081565b6040519081526020015b60405180910390f35b61018460035481565b610170610560565b6101706101b63660046117cd565b61063f565b6101ce6101c9366004611891565b610876565b60405161018e92919061192a565b6101ff6101ea36600461194d565b60066020526000908152604090205460ff1681565b604051901515815260200161018e565b610170610a00565b610170610225366004611968565b610a10565b60025460ff166101ff565b600454610248906001600160a01b031681565b6040516001600160a01b03909116815260200161018e565b61017061026e36600461194d565b610a5e565b610170610be6565b6101ff61028936600461194d565b60056020526000908152604090205460ff1681565b610170610bf8565b61018460085481565b6101706102bd36600461194d565b610c08565b6000546001600160a01b0316610248565b6101706102e1366004611981565b610cd6565b6102ee610e53565b60408051948552602085019390935291830152606082015260800161018e565b61018460075481565b6101706103253660046119dd565b610ef9565b6102487f000000000000000000000000000000000000000000000000000000000000000081565b61017061035f36600461194d565b611099565b61036c6110d7565b6001600160a01b03821661039b5760405162461bcd60e51b815260040161039290611a1f565b60405180910390fd5b600081116104015760405162461bcd60e51b815260206004820152602d60248201527f596573436f696e41697264726f703a20616d6f756e74206d757374206265206760448201526c0726561746572207468616e203609c1b6064820152608401610392565b6040516370a0823160e01b815230600482015281907f00000000000000000000000000000000000000000000000000000000000000006001600160a01b0316906370a0823190602401602060405180830381865afa158015610467573d6000803e3d6000fd5b505050506040513d601f19601f8201168201806040525081019061048b9190611a6f565b10156104e55760405162461bcd60e51b8152602060048201526024808201527f596573436f696e41697264726f703a20696e73756666696369656e742062616c604482015263616e636560e01b6064820152608401610392565b6105196001600160a01b037f0000000000000000000000000000000000000000000000000000000000000000168383611104565b816001600160a01b03167f6352c5382c4a4578e712449ca65e83cdb392d045dfcf1cad9615189db2da244b8260405161055491815260200190565b60405180910390a25050565b610568611156565b610570611180565b3360008181526005602052604090205460ff16156105a05760405162461bcd60e51b815260040161039290611a88565b6001600160a01b03811660009081526006602052604090205460ff166106085760405162461bcd60e51b815260206004820152601f60248201527f596573436f696e41697264726f703a206e6f742077686974656c6973746564006044820152606401610392565b61063381604051806040016040528060098152602001681dda1a5d195b1a5cdd60ba1b8152506111a4565b5061063d60018055565b565b610647611156565b61064f611180565b3360008181526005602052604090205460ff161561067f5760405162461bcd60e51b815260040161039290611a88565b6004546001600160a01b03166106e65760405162461bcd60e51b815260206004820152602660248201527f596573436f696e41697264726f703a206261636b656e64207369676e6572206e6044820152651bdd081cd95d60d21b6064820152608401610392565b6040516d0596573436f696e41697264726f760941b60208201526001600160601b0319606083901b16602e8201526a084595161401484a00000060428201526062810183905246608282015260009060a2016040516020818303038152906040528051906020012090506000610789827f19457468657265756d205369676e6564204d6573736167653a0a3332000000006000908152601c91909152603c902090565b905060006107cf87878080601f016020809104026020016040519081016040528093929190818152602001838380828437600092019190915250869392505061137e9050565b6004549091506001600160a01b038083169116146108395760405162461bcd60e51b815260206004820152602160248201527f596573436f696e41697264726f703a20696e76616c6964207369676e617475726044820152606560f81b6064820152608401610392565b61086484604051806040016040528060098152602001687369676e617475726560b81b8152506111a4565b5050505061087160018055565b505050565b6001600160a01b03831660009081526005602052604081205460609060ff16156108ca57505060408051808201909152600f81526e185b1c9958591e57d8db185a5b5959608a1b60208201526000906109f8565b6001600160a01b03851660009081526006602052604090205460ff16156109155750506040805180820190915260098152681dda1a5d195b1a5cdd60ba1b60208201526001906109f8565b6003541580159061092557508215155b156109cf576040516001600160601b0319606087901b1660208201526000906034016040516020818303038152906040528051906020012090506109a08585808060200260200160405190810160405280939291908181526020018383602002808284376000920191909152505060035491508490506113aa565b156109cd5750506040805180820190915260068152656d65726b6c6560d01b6020820152600191506109f8565b505b505060408051808201909152600c81526b6e6f745f656c696769626c6560a01b60208201526000905b935093915050565b610a086110d7565b61063d6113c0565b610a186110d7565b600380549082905560408051828152602081018490527ffd69edeceaf1d6832d935be1fba54ca93bf17e71520c6c9ffc08d6e9529f875791015b60405180910390a15050565b610a666110d7565b6001600160a01b038116610a8c5760405162461bcd60e51b815260040161039290611a1f565b6040516370a0823160e01b81523060048201526000907f00000000000000000000000000000000000000000000000000000000000000006001600160a01b0316906370a0823190602401602060405180830381865afa158015610af3573d6000803e3d6000fd5b505050506040513d601f19601f82011682018060405250810190610b179190611a6f565b905060008111610b775760405162461bcd60e51b815260206004820152602560248201527f596573436f696e41697264726f703a206e6f20746f6b656e7320746f20776974604482015264686472617760d81b6064820152608401610392565b610bab6001600160a01b037f0000000000000000000000000000000000000000000000000000000000000000168383611104565b816001600160a01b03167f5fafa99d0643513820be26656b45130b01e1c03062e1266bf36f88cbd3bd96958260405161055491815260200190565b610bee6110d7565b61063d6000611412565b610c006110d7565b61063d611462565b610c106110d7565b6001600160a01b038116610c7c5760405162461bcd60e51b815260206004820152602d60248201527f596573436f696e41697264726f703a207369676e65722063616e6e6f7420626560448201526c207a65726f206164647265737360981b6064820152608401610392565b600480546001600160a01b038381166001600160a01b031983168117909355604080519190921680825260208201939093527f93f9d0472cb0fc12887bf8f1f15cc7a197a5acd122ab23b8dcc25de0191e0d5e9101610a52565b610cde6110d7565b60005b82811015610e4d576000848483818110610cfd57610cfd611abf565b9050602002016020810190610d12919061194d565b6001600160a01b031603610d7c5760405162461bcd60e51b815260206004820152602b60248201527f596573436f696e41697264726f703a20757365722063616e6e6f74206265207a60448201526a65726f206164647265737360a81b6064820152608401610392565b8160066000868685818110610d9357610d93611abf565b9050602002016020810190610da8919061194d565b6001600160a01b031681526020810191909152604001600020805460ff1916911515919091179055838382818110610de257610de2611abf565b9050602002016020810190610df7919061194d565b6001600160a01b03167ff93f9a76c1bf3444d22400a00cb9fe990e6abe9dbb333fda48859cfee864543d83604051610e33911515815260200190565b60405180910390a280610e4581611aeb565b915050610ce1565b50505050565b6040516370a0823160e01b81523060048201526000908190819081906001600160a01b037f000000000000000000000000000000000000000000000000000000000000000016906370a0823190602401602060405180830381865afa158015610ec0573d6000803e3d6000fd5b505050506040513d601f19601f82011682018060405250810190610ee49190611a6f565b93506007549250600854915083905090919293565b610f01611156565b610f09611180565b3360008181526005602052604090205460ff1615610f395760405162461bcd60e51b815260040161039290611a88565b600354610f945760405162461bcd60e51b815260206004820152602360248201527f596573436f696e41697264726f703a204d65726b6c6520726f6f74206e6f74206044820152621cd95d60ea1b6064820152608401610392565b6040516001600160601b0319606083901b16602082015260009060340160405160208183030381529060405280519060200120905061100a8484808060200260200160405190810160405280939291908181526020018383602002808284376000920191909152505060035491508490506113aa565b6110625760405162461bcd60e51b8152602060048201526024808201527f596573436f696e41697264726f703a20696e76616c6964204d65726b6c6520706044820152633937b7b360e11b6064820152608401610392565b61108a82604051806040016040528060068152602001656d65726b6c6560d01b8152506111a4565b505061109560018055565b5050565b6110a16110d7565b6001600160a01b0381166110cb57604051631e4fbdf760e01b815260006004820152602401610392565b6110d481611412565b50565b6000546001600160a01b0316331461063d5760405163118cdaa760e01b8152336004820152602401610392565b604080516001600160a01b038416602482015260448082018490528251808303909101815260649091019091526020810180516001600160e01b031663a9059cbb60e01b17905261087190849061149f565b60026001540361117957604051633ee5aeb560e01b815260040160405180910390fd5b6002600155565b60025460ff161561063d5760405163d93c066560e01b815260040160405180910390fd5b6001600160a01b0382166000908152600560205260408120805460ff19166001179055600780546a084595161401484a00000092906111e4908490611b04565b925050819055506001600860008282546111fe9190611b04565b90915550506040516370a0823160e01b81523060048201526a084595161401484a000000907f00000000000000000000000000000000000000000000000000000000000000006001600160a01b0316906370a0823190602401602060405180830381865afa158015611274573d6000803e3d6000fd5b505050506040513d601f19601f820116820180604052508101906112989190611a6f565b10156112f95760405162461bcd60e51b815260206004820152602a60248201527f596573436f696e41697264726f703a20696e73756666696369656e7420746f6b604482015269656e2062616c616e636560b01b6064820152608401610392565b6113386001600160a01b037f000000000000000000000000000000000000000000000000000000000000000016836a084595161401484a000000611104565b816001600160a01b03167fd37139b53c036ec9c20b508c7a2ca2da23d1e3d77510030888f6ea6268ce4bcd6a084595161401484a00000083604051610554929190611b17565b60008060008061138e8686611510565b92509250925061139e828261155d565b50909150505b92915050565b6000826113b78584611616565b14949350505050565b6113c8611663565b6002805460ff191690557f5db9ee0a495bf2e6ff9c91a7834c1ba4fdd244a5e8aa4e537bd38aeae4b073aa335b6040516001600160a01b03909116815260200160405180910390a1565b600080546001600160a01b038381166001600160a01b0319831681178455604051919092169283917f8be0079c531659141344cd1fd0a4f28419497f9722a3daafe3b4186f6b6457e09190a35050565b61146a611180565b6002805460ff191660011790557f62e78cea01bee320cd4e420270b5ea74000d11b0c9f74754ebdbfc544b05a2586113f53390565b600080602060008451602086016000885af1806114c2576040513d6000823e3d81fd5b50506000513d915081156114da5780600114156114e7565b6001600160a01b0384163b155b15610e4d57604051635274afe760e01b81526001600160a01b0385166004820152602401610392565b6000806000835160410361154a5760208401516040850151606086015160001a61153c88828585611686565b955095509550505050611556565b50508151600091506002905b9250925092565b600082600381111561157157611571611b30565b0361157a575050565b600182600381111561158e5761158e611b30565b036115ac5760405163f645eedf60e01b815260040160405180910390fd5b60028260038111156115c0576115c0611b30565b036115e15760405163fce698f760e01b815260048101829052602401610392565b60038260038111156115f5576115f5611b30565b03611095576040516335e2f38360e21b815260048101829052602401610392565b600081815b845181101561165b576116478286838151811061163a5761163a611abf565b6020026020010151611755565b91508061165381611aeb565b91505061161b565b509392505050565b60025460ff1661063d57604051638dfc202b60e01b815260040160405180910390fd5b600080807f7fffffffffffffffffffffffffffffff5d576e7357a4501ddfe92f46681b20a08411156116c1575060009150600390508261174b565b604080516000808252602082018084528a905260ff891692820192909252606081018790526080810186905260019060a0016020604051602081039080840390855afa158015611715573d6000803e3d6000fd5b5050604051601f1901519150506001600160a01b0381166117415750600092506001915082905061174b565b9250600091508190505b9450945094915050565b6000818310611771576000828152602084905260409020611780565b60008381526020839052604090205b9392505050565b80356001600160a01b038116811461179e57600080fd5b919050565b600080604083850312156117b657600080fd5b6117bf83611787565b946020939093013593505050565b6000806000604084860312156117e257600080fd5b833567ffffffffffffffff808211156117fa57600080fd5b818601915086601f83011261180e57600080fd5b81358181111561181d57600080fd5b87602082850101111561182f57600080fd5b6020928301989097509590910135949350505050565b60008083601f84011261185757600080fd5b50813567ffffffffffffffff81111561186f57600080fd5b6020830191508360208260051b850101111561188a57600080fd5b9250929050565b6000806000604084860312156118a657600080fd5b6118af84611787565b9250602084013567ffffffffffffffff8111156118cb57600080fd5b6118d786828701611845565b9497909650939450505050565b6000815180845260005b8181101561190a576020818501810151868301820152016118ee565b506000602082860101526020601f19601f83011685010191505092915050565b821515815260406020820152600061194560408301846118e4565b949350505050565b60006020828403121561195f57600080fd5b61178082611787565b60006020828403121561197a57600080fd5b5035919050565b60008060006040848603121561199657600080fd5b833567ffffffffffffffff8111156119ad57600080fd5b6119b986828701611845565b909450925050602084013580151581146119d257600080fd5b809150509250925092565b600080602083850312156119f057600080fd5b823567ffffffffffffffff811115611a0757600080fd5b611a1385828601611845565b90969095509350505050565b60208082526030908201527f596573436f696e41697264726f703a20726563697069656e742063616e6e6f7460408201526f206265207a65726f206164647265737360801b606082015260800190565b600060208284031215611a8157600080fd5b5051919050565b6020808252601f908201527f596573436f696e41697264726f703a20616c726561647920636c61696d656400604082015260600190565b634e487b7160e01b600052603260045260246000fd5b634e487b7160e01b600052601160045260246000fd5b600060018201611afd57611afd611ad5565b5060010190565b808201808211156113a4576113a4611ad5565b82815260406020820152600061194560408301846118e4565b634e487b7160e01b600052602160045260246000fdfea2646970667358221220cb7d351ac4463068fc1930080594e6b3e63209c633e78fd9b1446a817a1d604c64736f6c63430008140033",
  "linkReferences": {},
  "deployedLinkReferences": {}
}